{
  "contractName": "cal1",
  "abi": [
    {
      "inputs": [
        {
          "name": "a",
          "type": "address[]"
        }
      ],
      "payable": false,
      "stateMutability": "nonpayable",
      "type": "constructor"
    },
    {
      "constant": false,
      "inputs": [],
      "name": "getNrOwners",
      "outputs": [
        {
          "name": "",
          "type": "uint256"
        }
      ],
      "payable": false,
      "stateMutability": "nonpayable",
      "type": "function"
    },
    {
      "constant": false,
      "inputs": [
        {
          "name": "a",
          "type": "address"
        }
      ],
      "name": "canWrite",
      "outputs": [
        {
          "name": "",
          "type": "bool"
        }
      ],
      "payable": false,
      "stateMutability": "nonpayable",
      "type": "function"
    }
  ],
  "bytecode": "0x608060405234801561001057600080fd5b50604051610329380380610329833981018060405281019080805182019291905050506000816000908051906020019061004b9291906100e8565b50600090505b81518163ffffffff1610156100e1576001806000848463ffffffff1681518110151561007957fe5b9060200190602002015173ffffffffffffffffffffffffffffffffffffffff1673ffffffffffffffffffffffffffffffffffffffff16815260200190815260200160002060006101000a81548160ff0219169083151502179055508080600101915050610051565b50506101b5565b828054828255906000526020600020908101928215610161579160200282015b828111156101605782518260006101000a81548173ffffffffffffffffffffffffffffffffffffffff021916908373ffffffffffffffffffffffffffffffffffffffff16021790555091602001919060010190610108565b5b50905061016e9190610172565b5090565b6101b291905b808211156101ae57600081816101000a81549073ffffffffffffffffffffffffffffffffffffffff021916905550600101610178565b5090565b90565b610165806101c46000396000f30060806040526004361061004c576000357c0100000000000000000000000000000000000000000000000000000000900463ffffffff1680633239b71b14610051578063502bb734146100ac575b600080fd5b34801561005d57600080fd5b50610092600480360381019080803573ffffffffffffffffffffffffffffffffffffffff1690602001909291905050506100d7565b604051808215151515815260200191505060405180910390f35b3480156100b857600080fd5b506100c161012d565b6040518082815260200191505060405180910390f35b6000600160008373ffffffffffffffffffffffffffffffffffffffff1673ffffffffffffffffffffffffffffffffffffffff16815260200190815260200160002060009054906101000a900460ff169050919050565b600080805490509050905600a165627a7a72305820e2f9a09ae1310829cbb586a7027c6360b843fedfc2f0ff822449741b140925b30029",
  "source": "pragma solidity ^0.4.24;\r\n\r\n\r\ncontract cal1 {\r\n    address[] private owners;\r\n    mapping(address => bool) private ownersMap;\r\n\r\n    constructor(address[] a) {\r\n        owners = a;\r\n        for(uint32 i = 0; i < a.length;i++) {\r\n            ownersMap[a[i]] = true;\r\n        }\r\n    }\r\n\r\n    function getNrOwners() public returns (uint256) {\r\n        return owners.length;\r\n    }\r\n\r\n    function canWrite(address a) public returns (bool) {\r\n        return ownersMap[a];\r\n    }\r\n}",
  "sourcePath": "C:\\Users\\Bjorn\\Documents\\github\\student_18_ethcalypso\\contracts\\Owners.sol",
  "compiler": {
    "name": "solc",
    "version": "0.4.24+commit.e67f0147.Emscripten.clang"
  },
  "schemaVersion": "2.0.1",
  "updatedAt": "2018-10-07T10:18:45.917Z"
}