{
  "contractName": "Calypso",
  "abi": [
    {
      "inputs": [
        {
          "name": "a",
          "type": "address[]"
        }
      ],
      "payable": false,
      "stateMutability": "nonpayable",
      "type": "constructor"
    },
    {
      "constant": true,
      "inputs": [
        {
          "name": "a",
          "type": "address"
        }
      ],
      "name": "canWrite",
      "outputs": [
        {
          "name": "",
          "type": "bool"
        }
      ],
      "payable": false,
      "stateMutability": "view",
      "type": "function"
    },
    {
      "constant": false,
      "inputs": [
        {
          "name": "d",
          "type": "bytes"
        },
        {
          "name": "ed",
          "type": "bytes"
        },
        {
          "name": "l",
          "type": "bytes"
        },
        {
          "name": "p",
          "type": "address[]"
        }
      ],
      "name": "addWriteRequest",
      "outputs": [],
      "payable": false,
      "stateMutability": "nonpayable",
      "type": "function"
    },
    {
      "constant": true,
      "inputs": [
        {
          "name": "b",
          "type": "bytes32"
        }
      ],
      "name": "getRequestByID",
      "outputs": [
        {
          "name": "",
          "type": "address"
        }
      ],
      "payable": false,
      "stateMutability": "view",
      "type": "function"
    },
    {
      "constant": false,
      "inputs": [
        {
          "name": "d",
          "type": "bytes"
        },
        {
          "name": "ed",
          "type": "bytes"
        },
        {
          "name": "l",
          "type": "bytes"
        },
        {
          "name": "p",
          "type": "address[]"
        }
      ],
      "name": "checkIfRequestIsValid",
      "outputs": [
        {
          "name": "",
          "type": "bool"
        }
      ],
      "payable": false,
      "stateMutability": "nonpayable",
      "type": "function"
    },
    {
      "constant": false,
      "inputs": [
        {
          "name": "d",
          "type": "bytes"
        },
        {
          "name": "ed",
          "type": "bytes"
        },
        {
          "name": "l",
          "type": "bytes"
        },
        {
          "name": "p",
          "type": "address[]"
        }
      ],
      "name": "newWriteRequest",
      "outputs": [
        {
          "name": "",
          "type": "address"
        }
      ],
      "payable": false,
      "stateMutability": "nonpayable",
      "type": "function"
    },
    {
      "constant": false,
      "inputs": [
        {
          "name": "d",
          "type": "bytes"
        },
        {
          "name": "ed",
          "type": "bytes"
        },
        {
          "name": "l",
          "type": "bytes"
        },
        {
          "name": "p",
          "type": "address[]"
        }
      ],
      "name": "getIDOfWriteRequest",
      "outputs": [
        {
          "name": "",
          "type": "bytes32"
        }
      ],
      "payable": false,
      "stateMutability": "nonpayable",
      "type": "function"
    }
  ],
  "bytecode": "0x608060405234801561001057600080fd5b50604051611e04380380611e04833981018060405281019080805182019291905050508061003c6100e9565b8080602001828103825283818151815260200191508051906020019060200280838360005b8381101561007c578082015181840152602081019050610061565b5050505090500192505050604051809103906000f0801580156100a3573d6000803e3d6000fd5b506000806101000a81548173ffffffffffffffffffffffffffffffffffffffff021916908373ffffffffffffffffffffffffffffffffffffffff160217905550506100f9565b60405161032980611adb83390190565b6119d3806101086000396000f300608060405260043610610078576000357c0100000000000000000000000000000000000000000000000000000000900463ffffffff168063034fb16d1461007d5780630464c13c146100ee5780633239b71b1461022657806332d29f74146102815780635a2bbc83146103d55780637b655d7614610525575b600080fd5b34801561008957600080fd5b506100ac600480360381019080803560001916906020019092919050505061069d565b604051808273ffffffffffffffffffffffffffffffffffffffff1673ffffffffffffffffffffffffffffffffffffffff16815260200191505060405180910390f35b3480156100fa57600080fd5b50610224600480360381019080803590602001908201803590602001908080601f0160208091040260200160405190810160405280939291908181526020018383808284378201915050505050509192919290803590602001908201803590602001908080601f0160208091040260200160405190810160405280939291908181526020018383808284378201915050505050509192919290803590602001908201803590602001908080601f01602080910402602001604051908101604052809392919081815260200183838082843782019150505050505091929192908035906020019082018035906020019080806020026020016040519081016040528093929190818152602001838360200280828437820191505050505050919291929050505061077f565b005b34801561023257600080fd5b50610267600480360381019080803573ffffffffffffffffffffffffffffffffffffffff16906020019092919050505061093d565b604051808215151515815260200191505060405180910390f35b34801561028d57600080fd5b506103b7600480360381019080803590602001908201803590602001908080601f0160208091040260200160405190810160405280939291908181526020018383808284378201915050505050509192919290803590602001908201803590602001908080601f0160208091040260200160405190810160405280939291908181526020018383808284378201915050505050509192919290803590602001908201803590602001908080601f016020809104026020016040519081016040528093929190818152602001838380828437820191505050505050919291929080359060200190820180359060200190808060200260200160405190810160405280939291908181526020018383602002808284378201915050505050509192919290505050610a3d565b60405180826000191660001916815260200191505060405180910390f35b3480156103e157600080fd5b5061050b600480360381019080803590602001908201803590602001908080601f0160208091040260200160405190810160405280939291908181526020018383808284378201915050505050509192919290803590602001908201803590602001908080601f0160208091040260200160405190810160405280939291908181526020018383808284378201915050505050509192919290803590602001908201803590602001908080601f016020809104026020016040519081016040528093929190818152602001838380828437820191505050505050919291929080359060200190820180359060200190808060200260200160405190810160405280939291908181526020018383602002808284378201915050505050509192919290505050610ca4565b604051808215151515815260200191505060405180910390f35b34801561053157600080fd5b5061065b600480360381019080803590602001908201803590602001908080601f0160208091040260200160405190810160405280939291908181526020018383808284378201915050505050509192919290803590602001908201803590602001908080601f0160208091040260200160405190810160405280939291908181526020018383808284378201915050505050509192919290803590602001908201803590602001908080601f016020809104026020016040519081016040528093929190818152602001838380828437820191505050505050919291929080359060200190820180359060200190808060200260200160405190810160405280939291908181526020018383602002808284378201915050505050509192919290505050610d87565b604051808273ffffffffffffffffffffffffffffffffffffffff1673ffffffffffffffffffffffffffffffffffffffff16815260200191505060405180910390f35b600080600160009054906101000a900473ffffffffffffffffffffffffffffffffffffffff1673ffffffffffffffffffffffffffffffffffffffff1663034fb16d846040518263ffffffff167c0100000000000000000000000000000000000000000000000000000000028152600401808260001916600019168152602001915050602060405180830381600087803b15801561073957600080fd5b505af115801561074d573d6000803e3d6000fd5b505050506040513d602081101561076357600080fd5b8101908080519060200190929190505050905080915050919050565b600061078d85858585610d87565b9050600160009054906101000a900473ffffffffffffffffffffffffffffffffffffffff1673ffffffffffffffffffffffffffffffffffffffff16631029a017826040518263ffffffff167c0100000000000000000000000000000000000000000000000000000000028152600401808273ffffffffffffffffffffffffffffffffffffffff1673ffffffffffffffffffffffffffffffffffffffff168152602001915050600060405180830381600087803b15801561084c57600080fd5b505af1158015610860573d6000803e3d6000fd5b505050506001600260008373ffffffffffffffffffffffffffffffffffffffff1663ab9dbd076040518163ffffffff167c0100000000000000000000000000000000000000000000000000000000028152600401602060405180830381600087803b1580156108ce57600080fd5b505af11580156108e2573d6000803e3d6000fd5b505050506040513d60208110156108f857600080fd5b81019080805190602001909291905050506000191660001916815260200190815260200160002060006101000a81548160ff0219169083151502179055505050505050565b60008060009054906101000a900473ffffffffffffffffffffffffffffffffffffffff1673ffffffffffffffffffffffffffffffffffffffff16633239b71b836040518263ffffffff167c0100000000000000000000000000000000000000000000000000000000028152600401808273ffffffffffffffffffffffffffffffffffffffff1673ffffffffffffffffffffffffffffffffffffffff168152602001915050602060405180830381600087803b1580156109fb57600080fd5b505af1158015610a0f573d6000803e3d6000fd5b505050506040513d6020811015610a2557600080fd5b81019080805190602001909291905050509050919050565b60008085858585610a4c610f50565b8080602001806020018060200180602001858103855289818151815260200191508051906020019080838360005b83811015610a95578082015181840152602081019050610a7a565b50505050905090810190601f168015610ac25780820380516001836020036101000a031916815260200191505b50858103845288818151815260200191508051906020019080838360005b83811015610afb578082015181840152602081019050610ae0565b50505050905090810190601f168015610b285780820380516001836020036101000a031916815260200191505b50858103835287818151815260200191508051906020019080838360005b83811015610b61578082015181840152602081019050610b46565b50505050905090810190601f168015610b8e5780820380516001836020036101000a031916815260200191505b50858103825286818151815260200191508051906020019060200280838360005b83811015610bca578082015181840152602081019050610baf565b5050505090500198505050505050505050604051809103906000f080158015610bf7573d6000803e3d6000fd5b5090508073ffffffffffffffffffffffffffffffffffffffff1663ab9dbd076040518163ffffffff167c0100000000000000000000000000000000000000000000000000000000028152600401602060405180830381600087803b158015610c5e57600080fd5b505af1158015610c72573d6000803e3d6000fd5b505050506040513d6020811015610c8857600080fd5b8101908080519060200190929190505050915050949350505050565b600080610cb386868686610d87565b9050600260008273ffffffffffffffffffffffffffffffffffffffff1663ab9dbd076040518163ffffffff167c0100000000000000000000000000000000000000000000000000000000028152600401602060405180830381600087803b158015610d1d57600080fd5b505af1158015610d31573d6000803e3d6000fd5b505050506040513d6020811015610d4757600080fd5b81019080805190602001909291905050506000191660001916815260200190815260200160002060009054906101000a900460ff16915050949350505050565b60008085858585610d96610f50565b8080602001806020018060200180602001858103855289818151815260200191508051906020019080838360005b83811015610ddf578082015181840152602081019050610dc4565b50505050905090810190601f168015610e0c5780820380516001836020036101000a031916815260200191505b50858103845288818151815260200191508051906020019080838360005b83811015610e45578082015181840152602081019050610e2a565b50505050905090810190601f168015610e725780820380516001836020036101000a031916815260200191505b50858103835287818151815260200191508051906020019080838360005b83811015610eab578082015181840152602081019050610e90565b50505050905090810190601f168015610ed85780820380516001836020036101000a031916815260200191505b50858103825286818151815260200191508051906020019060200280838360005b83811015610f14578082015181840152602081019050610ef9565b5050505090500198505050505050505050604051809103906000f080158015610f41573d6000803e3d6000fd5b50905080915050949350505050565b604051610a4780610f61833901905600608060405234801561001057600080fd5b50604051610a47380380610a478339810180604052810190808051820192919060200180518201929190602001805182019291906020018051820192919050505083600090805190602001906100679291906100b6565b50826001908051906020019061007e9291906100b6565b5081600290805190602001906100959291906100b6565b5080600390805190602001906100ac929190610136565b5050505050610228565b828054600181600116156101000203166002900490600052602060002090601f016020900481019282601f106100f757805160ff1916838001178555610125565b82800160010185558215610125579182015b82811115610124578251825591602001919060010190610109565b5b50905061013291906101c0565b5090565b8280548282559060005260206000209081019282156101af579160200282015b828111156101ae5782518260006101000a81548173ffffffffffffffffffffffffffffffffffffffff021916908373ffffffffffffffffffffffffffffffffffffffff16021790555091602001919060010190610156565b5b5090506101bc91906101e5565b5090565b6101e291905b808211156101de5760008160009055506001016101c6565b5090565b90565b61022591905b8082111561022157600081816101000a81549073ffffffffffffffffffffffffffffffffffffffff0219169055506001016101eb565b5090565b90565b610810806102376000396000f300608060405260043610610057576000357c0100000000000000000000000000000000000000000000000000000000900463ffffffff168063ab9dbd071461005c578063b661a4471461008f578063ecc0f871146101df575b600080fd5b34801561006857600080fd5b5061007161020a565b60405180826000191660001916815260200191505060405180910390f35b34801561009b57600080fd5b506101c5600480360381019080803590602001908201803590602001908080601f0160208091040260200160405190810160405280939291908181526020018383808284378201915050505050509192919290803590602001908201803590602001908080601f0160208091040260200160405190810160405280939291908181526020018383808284378201915050505050509192919290803590602001908201803590602001908080601f016020809104026020016040519081016040528093929190818152602001838380828437820191505050505050919291929080359060200190820180359060200190808060200260200160405190810160405280939291908181526020018383602002808284378201915050505050509192919290505050610518565b604051808215151515815260200191505060405180910390f35b3480156101eb57600080fd5b506101f461067f565b6040518082815260200191505060405180910390f35b6000606061046e60008054600181600116156101000203166002900480601f0160208091040260200160405190810160405280929190818152602001828054600181600116156101000203166002900480156102a75780601f1061027c576101008083540402835291602001916102a7565b820191906000526020600020905b81548152906001019060200180831161028a57829003601f168201915b505050505060018054600181600116156101000203166002900480601f0160208091040260200160405190810160405280929190818152602001828054600181600116156101000203166002900480156103425780601f1061031757610100808354040283529160200191610342565b820191906000526020600020905b81548152906001019060200180831161032557829003601f168201915b505050505060028054600181600116156101000203166002900480601f0160208091040260200160405190810160405280929190818152602001828054600181600116156101000203166002900480156103dd5780601f106103b2576101008083540402835291602001916103dd565b820191906000526020600020905b8154815290600101906020018083116103c057829003601f168201915b5050505050600380548060200260200160405190810160405280929190818152602001828054801561046457602002820191906000526020600020905b8160009054906101000a900473ffffffffffffffffffffffffffffffffffffffff1673ffffffffffffffffffffffffffffffffffffffff168152602001906001019080831161041a575b505050505061068c565b90506002816040518082805190602001908083835b6020831015156104a85780518252602082019150602081019050602083039250610483565b6001836020036101000a0380198251168184511680821785525050505050509050019150506020604051808303816000865af11580156104ec573d6000803e3d6000fd5b5050506040513d602081101561050157600080fd5b810190808051906020019092919050505091505090565b600060606105288686868661068c565b90506002816040518082805190602001908083835b602083101515610562578051825260208201915060208101905060208303925061053d565b6001836020036101000a0380198251168184511680821785525050505050509050019150506020604051808303816000865af11580156105a6573d6000803e3d6000fd5b5050506040513d60208110156105bb57600080fd5b8101908080519060200190929190505050600019163073ffffffffffffffffffffffffffffffffffffffff1663ab9dbd076040518163ffffffff167c0100000000000000000000000000000000000000000000000000000000028152600401602060405180830381600087803b15801561063457600080fd5b505af1158015610648573d6000803e3d6000fd5b505050506040513d602081101561065e57600080fd5b81019080805190602001909291905050506000191614915050949350505050565b6000600380549050905090565b6060848484846040516020018085805190602001908083835b6020831015156106ca57805182526020820191506020810190506020830392506106a5565b6001836020036101000a03801982511681845116808217855250505050505090500184805190602001908083835b60208310151561071d57805182526020820191506020810190506020830392506106f8565b6001836020036101000a03801982511681845116808217855250505050505090500183805190602001908083835b602083101515610770578051825260208201915060208101905060208303925061074b565b6001836020036101000a038019825116818451168082178552505050505050905001828051906020019060200280838360005b838110156107be5780820151818401526020810190506107a3565b5050505090500194505050505060405160208183030381529060405290509493505050505600a165627a7a72305820d408220a580eeb26323c5f6a7d67d5e27eef25120b001a9c020e521033b092e10029a165627a7a72305820a5f53db7614b021279d81494283abeca786404e13753bc5f150b83ee8b470bcb0029608060405234801561001057600080fd5b50604051610329380380610329833981018060405281019080805182019291905050506000816000908051906020019061004b9291906100e8565b50600090505b81518163ffffffff1610156100e1576001806000848463ffffffff1681518110151561007957fe5b9060200190602002015173ffffffffffffffffffffffffffffffffffffffff1673ffffffffffffffffffffffffffffffffffffffff16815260200190815260200160002060006101000a81548160ff0219169083151502179055508080600101915050610051565b50506101b5565b828054828255906000526020600020908101928215610161579160200282015b828111156101605782518260006101000a81548173ffffffffffffffffffffffffffffffffffffffff021916908373ffffffffffffffffffffffffffffffffffffffff16021790555091602001919060010190610108565b5b50905061016e9190610172565b5090565b6101b291905b808211156101ae57600081816101000a81549073ffffffffffffffffffffffffffffffffffffffff021916905550600101610178565b5090565b90565b610165806101c46000396000f30060806040526004361061004c576000357c0100000000000000000000000000000000000000000000000000000000900463ffffffff1680633239b71b14610051578063502bb734146100ac575b600080fd5b34801561005d57600080fd5b50610092600480360381019080803573ffffffffffffffffffffffffffffffffffffffff1690602001909291905050506100d7565b604051808215151515815260200191505060405180910390f35b3480156100b857600080fd5b506100c161012d565b6040518082815260200191505060405180910390f35b6000600160008373ffffffffffffffffffffffffffffffffffffffff1673ffffffffffffffffffffffffffffffffffffffff16815260200190815260200160002060009054906101000a900460ff169050919050565b600080805490509050905600a165627a7a72305820df808d58bb3f2baf707855077faf2d9289f78fc682ebffa13918bfd351347df70029",
  "source": "pragma solidity ^0.4.24;\r\n\r\nimport \"./Owners.sol\";\r\nimport \"./WriteRequestHolder.sol\";\r\nimport \"./WriteRequest.sol\";\r\n\r\n\r\ncontract Calypso {\r\n\r\n    Owners private owners;\r\n    WriteRequestHolder private wrHolder;\r\n    mapping(bytes32 => bool) hasReq;\r\n\r\n\r\n    //The addresses of the owners of the contract\r\n    //This is a mapping that maps the hash of a request to the\r\n    //associated WriteRequest of that hash\r\n    \r\n    constructor(address[] a) public {\r\n        owners = new Owners(a);\r\n    }\r\n\r\n    function canWrite(address a) public view returns (bool) {\r\n        return owners.canWrite(a);\r\n    }\r\n\r\n    function addWriteRequest(bytes d, bytes ed, bytes l, address[] p) public {\r\n        //require(canWrite(msg.sender), \"You are not a registered owner\");\r\n        WriteRequest wr = newWriteRequest(d, ed, l, p);\r\n        wrHolder.addWriteRequest(wr);\r\n        hasReq[wr.getID()] = true;\r\n    }\r\n\r\n    function getRequestByID(bytes32 b) public view returns (WriteRequest) {\r\n        WriteRequest wr = wrHolder.getRequestByID(b);\r\n        return wr;\r\n    }\r\n\r\n    //This  functions is basically only there for testing purposes.\r\n    //Passing contracts to truffle or js frameworks is a\r\n    //pain but this allows me to be able to check if for a\r\n    //given ID I have stored a contract. This is only used\r\n    //for testing purposes and will probably not go to\r\n    //production.\r\n    function checkIfRequestIsValid(bytes d, bytes ed, bytes l, address[] p) public returns (bool) {\r\n        WriteRequest wr = newWriteRequest(d, ed, l, p);\r\n        return hasReq[wr.getID()];\r\n    }\r\n\r\n    function newWriteRequest(bytes d, bytes ed, bytes l, address[] p) public returns (WriteRequest) {\r\n        WriteRequest wr = new WriteRequest(d, ed, l, p);\r\n        return wr;\r\n    }\r\n\r\n    //This is also purely a testing method. Way too hard to\r\n    //pass a contract as a parameter outside of a solidity contract\r\n    function getIDOfWriteRequest(bytes d, bytes ed, bytes l, address[] p) public returns (bytes32) {\r\n        WriteRequest wr = new WriteRequest(d, ed, l, p);\r\n        return wr.getID();\r\n    }\r\n\r\n}\r\n\r\n\r\n\r\n",
  "sourcePath": "C:\\Users\\Bjorn\\Documents\\github\\student_18_ethcalypso\\contracts\\Calypso.sol",
  "compiler": {
    "name": "solc",
    "version": "0.4.24+commit.e67f0147.Emscripten.clang"
  },
  "schemaVersion": "2.0.1",
  "updatedAt": "2018-10-07T14:19:47.590Z"
}