{
  "contractName": "Calypso",
  "abi": [
    {
      "inputs": [
        {
          "name": "a",
          "type": "address[]"
        },
        {
          "name": "holder",
          "type": "address"
        },
        {
          "name": "rrholder",
          "type": "address"
        }
      ],
      "payable": false,
      "stateMutability": "nonpayable",
      "type": "constructor"
    },
    {
      "constant": true,
      "inputs": [
        {
          "name": "a",
          "type": "address"
        }
      ],
      "name": "canWrite",
      "outputs": [
        {
          "name": "",
          "type": "bool"
        }
      ],
      "payable": false,
      "stateMutability": "view",
      "type": "function"
    },
    {
      "constant": false,
      "inputs": [
        {
          "name": "a",
          "type": "address"
        }
      ],
      "name": "addWriteRequest",
      "outputs": [],
      "payable": false,
      "stateMutability": "nonpayable",
      "type": "function"
    },
    {
      "constant": false,
      "inputs": [
        {
          "name": "a",
          "type": "address"
        }
      ],
      "name": "AddReadRequest",
      "outputs": [],
      "payable": false,
      "stateMutability": "nonpayable",
      "type": "function"
    },
    {
      "constant": false,
      "inputs": [
        {
          "name": "a",
          "type": "address"
        }
      ],
      "name": "checkIfRequestIsValid",
      "outputs": [
        {
          "name": "",
          "type": "bool"
        }
      ],
      "payable": false,
      "stateMutability": "nonpayable",
      "type": "function"
    },
    {
      "constant": false,
      "inputs": [
        {
          "name": "a",
          "type": "address"
        }
      ],
      "name": "getIDOfWriteRequest",
      "outputs": [
        {
          "name": "",
          "type": "bytes32"
        }
      ],
      "payable": false,
      "stateMutability": "nonpayable",
      "type": "function"
    },
    {
      "constant": true,
      "inputs": [
        {
          "name": "a",
          "type": "address"
        }
      ],
      "name": "isValidReadRequest",
      "outputs": [
        {
          "name": "",
          "type": "bool"
        }
      ],
      "payable": false,
      "stateMutability": "view",
      "type": "function"
    }
  ],
  "bytecode": "0x608060405234801561001057600080fd5b50604051610f82380380610f8283398101806040528101908080518201929190602001805190602001909291908051906020019092919050505082610053610184565b8080602001828103825283818151815260200191508051906020019060200280838360005b83811015610093578082015181840152602081019050610078565b5050505090500192505050604051809103906000f0801580156100ba573d6000803e3d6000fd5b506000806101000a81548173ffffffffffffffffffffffffffffffffffffffff021916908373ffffffffffffffffffffffffffffffffffffffff16021790555081600160006101000a81548173ffffffffffffffffffffffffffffffffffffffff021916908373ffffffffffffffffffffffffffffffffffffffff16021790555080600360006101000a81548173ffffffffffffffffffffffffffffffffffffffff021916908373ffffffffffffffffffffffffffffffffffffffff160217905550505050610194565b60405161032980610c5983390190565b610ab6806101a36000396000f300608060405260043610610078576000357c0100000000000000000000000000000000000000000000000000000000900463ffffffff1680631029a0171461007d5780633239b71b146100c05780634a4e19d31461011b578063778ad09c14610176578063bdae9b89146101d1578063c93cdf0214610214575b600080fd5b34801561008957600080fd5b506100be600480360381019080803573ffffffffffffffffffffffffffffffffffffffff169060200190929190505050610273565b005b3480156100cc57600080fd5b50610101600480360381019080803573ffffffffffffffffffffffffffffffffffffffff1690602001909291905050506103c8565b604051808215151515815260200191505060405180910390f35b34801561012757600080fd5b5061015c600480360381019080803573ffffffffffffffffffffffffffffffffffffffff1690602001909291905050506104c8565b604051808215151515815260200191505060405180910390f35b34801561018257600080fd5b506101b7600480360381019080803573ffffffffffffffffffffffffffffffffffffffff1690602001909291905050506105c9565b604051808215151515815260200191505060405180910390f35b3480156101dd57600080fd5b50610212600480360381019080803573ffffffffffffffffffffffffffffffffffffffff1690602001909291905050506106ca565b005b34801561022057600080fd5b50610255600480360381019080803573ffffffffffffffffffffffffffffffffffffffff1690602001909291905050506109dd565b60405180826000191660001916815260200191505060405180910390f35b61027c336103c8565b15156102f0576040517f08c379a000000000000000000000000000000000000000000000000000000000815260040180806020018281038252601e8152602001807f596f7520617265206e6f7420612072656769737465726564206f776e6572000081525060200191505060405180910390fd5b600160009054906101000a900473ffffffffffffffffffffffffffffffffffffffff1673ffffffffffffffffffffffffffffffffffffffff16631029a017826040518263ffffffff167c0100000000000000000000000000000000000000000000000000000000028152600401808273ffffffffffffffffffffffffffffffffffffffff1673ffffffffffffffffffffffffffffffffffffffff168152602001915050600060405180830381600087803b1580156103ad57600080fd5b505af11580156103c1573d6000803e3d6000fd5b5050505050565b60008060009054906101000a900473ffffffffffffffffffffffffffffffffffffffff1673ffffffffffffffffffffffffffffffffffffffff16633239b71b836040518263ffffffff167c0100000000000000000000000000000000000000000000000000000000028152600401808273ffffffffffffffffffffffffffffffffffffffff1673ffffffffffffffffffffffffffffffffffffffff168152602001915050602060405180830381600087803b15801561048657600080fd5b505af115801561049a573d6000803e3d6000fd5b505050506040513d60208110156104b057600080fd5b81019080805190602001909291905050509050919050565b6000600160009054906101000a900473ffffffffffffffffffffffffffffffffffffffff1673ffffffffffffffffffffffffffffffffffffffff166342087d4f836040518263ffffffff167c0100000000000000000000000000000000000000000000000000000000028152600401808273ffffffffffffffffffffffffffffffffffffffff1673ffffffffffffffffffffffffffffffffffffffff168152602001915050602060405180830381600087803b15801561058757600080fd5b505af115801561059b573d6000803e3d6000fd5b505050506040513d60208110156105b157600080fd5b81019080805190602001909291905050509050919050565b6000600360009054906101000a900473ffffffffffffffffffffffffffffffffffffffff1673ffffffffffffffffffffffffffffffffffffffff1663fd6336dc836040518263ffffffff167c0100000000000000000000000000000000000000000000000000000000028152600401808273ffffffffffffffffffffffffffffffffffffffff1673ffffffffffffffffffffffffffffffffffffffff168152602001915050602060405180830381600087803b15801561068857600080fd5b505af115801561069c573d6000803e3d6000fd5b505050506040513d60208110156106b257600080fd5b81019080805190602001909291905050509050919050565b6000808291508173ffffffffffffffffffffffffffffffffffffffff166364e94e676040518163ffffffff167c0100000000000000000000000000000000000000000000000000000000028152600401602060405180830381600087803b15801561073457600080fd5b505af1158015610748573d6000803e3d6000fd5b505050506040513d602081101561075e57600080fd5b81019080805190602001909291905050509050600160009054906101000a900473ffffffffffffffffffffffffffffffffffffffff1673ffffffffffffffffffffffffffffffffffffffff166342087d4f826040518263ffffffff167c0100000000000000000000000000000000000000000000000000000000028152600401808273ffffffffffffffffffffffffffffffffffffffff1673ffffffffffffffffffffffffffffffffffffffff168152602001915050602060405180830381600087803b15801561082e57600080fd5b505af1158015610842573d6000803e3d6000fd5b505050506040513d602081101561085857600080fd5b81019080805190602001909291905050501515610903576040517f08c379a00000000000000000000000000000000000000000000000000000000081526004018080602001828103825260278152602001807f5468657265206973206e6f20636f72726573706f6e64696e672077726974652081526020017f726571756573740000000000000000000000000000000000000000000000000081525060400191505060405180910390fd5b600360009054906101000a900473ffffffffffffffffffffffffffffffffffffffff1673ffffffffffffffffffffffffffffffffffffffff166331419b50846040518263ffffffff167c0100000000000000000000000000000000000000000000000000000000028152600401808273ffffffffffffffffffffffffffffffffffffffff1673ffffffffffffffffffffffffffffffffffffffff168152602001915050600060405180830381600087803b1580156109c057600080fd5b505af11580156109d4573d6000803e3d6000fd5b50505050505050565b6000808290508073ffffffffffffffffffffffffffffffffffffffff1663ab9dbd076040518163ffffffff167c0100000000000000000000000000000000000000000000000000000000028152600401602060405180830381600087803b158015610a4757600080fd5b505af1158015610a5b573d6000803e3d6000fd5b505050506040513d6020811015610a7157600080fd5b81019080805190602001909291905050509150509190505600a165627a7a72305820644343834fb5d69671803c6a25bfc6db311a12e4189c2a8e1b41c55cb5a65bb10029608060405234801561001057600080fd5b50604051610329380380610329833981018060405281019080805182019291905050506000816000908051906020019061004b9291906100e8565b50600090505b81518163ffffffff1610156100e1576001806000848463ffffffff1681518110151561007957fe5b9060200190602002015173ffffffffffffffffffffffffffffffffffffffff1673ffffffffffffffffffffffffffffffffffffffff16815260200190815260200160002060006101000a81548160ff0219169083151502179055508080600101915050610051565b50506101b5565b828054828255906000526020600020908101928215610161579160200282015b828111156101605782518260006101000a81548173ffffffffffffffffffffffffffffffffffffffff021916908373ffffffffffffffffffffffffffffffffffffffff16021790555091602001919060010190610108565b5b50905061016e9190610172565b5090565b6101b291905b808211156101ae57600081816101000a81549073ffffffffffffffffffffffffffffffffffffffff021916905550600101610178565b5090565b90565b610165806101c46000396000f30060806040526004361061004c576000357c0100000000000000000000000000000000000000000000000000000000900463ffffffff1680633239b71b14610051578063502bb734146100ac575b600080fd5b34801561005d57600080fd5b50610092600480360381019080803573ffffffffffffffffffffffffffffffffffffffff1690602001909291905050506100d7565b604051808215151515815260200191505060405180910390f35b3480156100b857600080fd5b506100c161012d565b6040518082815260200191505060405180910390f35b6000600160008373ffffffffffffffffffffffffffffffffffffffff1673ffffffffffffffffffffffffffffffffffffffff16815260200190815260200160002060009054906101000a900460ff169050919050565b600080805490509050905600a165627a7a72305820ffce0eb4d98c7d6ed77deb3b42665a9d3ec38c8d787c8748d5dd93804c081bca0029",
  "source": "pragma solidity ^0.4.24;\n\nimport \"./Owners.sol\";\nimport \"./WriteRequestHolder.sol\";\nimport \"./WriteRequest.sol\";\nimport \"./ReadRequest.sol\";\nimport \"./ReadRequestHolder.sol\";\n\n\ncontract Calypso {\n\n    Owners private owners;\n    WriteRequestHolder private wrHolder;\n    mapping(bytes32 => bool) hasReq;\n    ReadRequestHolder private rrHolder;\n\n\n    //The addresses of the owners of the contract\n    //This is a mapping that maps the hash of a request to the\n    //associated WriteRequest of that hash\n    \n    constructor(address[] a, address holder, address rrholder) public {\n        owners = new Owners(a);\n        wrHolder = WriteRequestHolder(holder);\n        rrHolder = ReadRequestHolder(rrholder);\n    }\n\n    function canWrite(address a) public view returns (bool) {\n        return owners.canWrite(a);\n    }\n\n    function addWriteRequest(address a) public {\n        require(canWrite(msg.sender), \"You are not a registered owner\");\n        wrHolder.addWriteRequest(a);\n    }\n\n    function AddReadRequest(address a) public {\n        ReadRequest rr = ReadRequest(a);\n        address write = rr.writeRequest();\n        require(wrHolder.canRead(write), \"There is no corresponding write request\");\n        rrHolder.addReadRequest(a);\n    }\n\n    function checkIfRequestIsValid(address a) public returns (bool) {\n        return wrHolder.canRead(a);\n    }\n\n    //This is also purely a testing method. Way too hard to\n    //pass a contract as a parameter outside of a solidity contract\n    function getIDOfWriteRequest(address a) public returns (bytes32) {\n        WriteRequest wr = WriteRequest(a);\n        return wr.getID();\n    }\n\n    function isValidReadRequest(address a)  public view returns (bool) {\n        return rrHolder.hasReadRequest(a);\n    }\n\n}\n\n\n\n",
  "sourcePath": "/home/bjorn/go/src/github.com/dedis/student_18_ethcalypso/calypso/ethac/contracts/Calypso.sol",
  "compiler": {
    "name": "solc",
    "version": "0.4.24+commit.e67f0147.Emscripten.clang"
  },
  "schemaVersion": "2.0.1",
  "updatedAt": "2018-10-15T00:21:15.156Z"
}