{
  "contractName": "Greeter",
  "abi": [
    {
      "constant": false,
      "inputs": [],
      "name": "kill",
      "outputs": [],
      "payable": false,
      "stateMutability": "nonpayable",
      "type": "function"
    },
    {
      "constant": true,
      "inputs": [],
      "name": "owner",
      "outputs": [
        {
          "name": "",
          "type": "address"
        }
      ],
      "payable": false,
      "stateMutability": "view",
      "type": "function"
    },
    {
      "inputs": [
        {
          "name": "n",
          "type": "string"
        },
        {
          "name": "b",
          "type": "bytes"
        }
      ],
      "payable": false,
      "stateMutability": "nonpayable",
      "type": "constructor"
    },
    {
      "constant": false,
      "inputs": [],
      "name": "registerClient",
      "outputs": [],
      "payable": false,
      "stateMutability": "nonpayable",
      "type": "function"
    },
    {
      "constant": false,
      "inputs": [],
      "name": "getPrice",
      "outputs": [
        {
          "name": "",
          "type": "uint256"
        }
      ],
      "payable": false,
      "stateMutability": "nonpayable",
      "type": "function"
    },
    {
      "constant": false,
      "inputs": [],
      "name": "greet",
      "outputs": [
        {
          "name": "",
          "type": "bytes"
        }
      ],
      "payable": true,
      "stateMutability": "payable",
      "type": "function"
    },
    {
      "constant": false,
      "inputs": [],
      "name": "setPrice",
      "outputs": [],
      "payable": true,
      "stateMutability": "payable",
      "type": "function"
    }
  ],
  "bytecode": "0x608060405234801561001057600080fd5b506040516108b83803806108b88339810180604052810190808051820192919060200180518201929190505050336000806101000a81548173ffffffffffffffffffffffffffffffffffffffff021916908373ffffffffffffffffffffffffffffffffffffffff16021790555033600160006101000a81548173ffffffffffffffffffffffffffffffffffffffff021916908373ffffffffffffffffffffffffffffffffffffffff16021790555081600690805190602001906100d49291906100f3565b5080600390805190602001906100eb929190610173565b505050610218565b828054600181600116156101000203166002900490600052602060002090601f016020900481019282601f1061013457805160ff1916838001178555610162565b82800160010185558215610162579182015b82811115610161578251825591602001919060010190610146565b5b50905061016f91906101f3565b5090565b828054600181600116156101000203166002900490600052602060002090601f016020900481019282601f106101b457805160ff19168380011785556101e2565b828001600101855582156101e2579182015b828111156101e15782518255916020019190600101906101c6565b5b5090506101ef91906101f3565b5090565b61021591905b808211156102115760008160009055506001016101f9565b5090565b90565b610691806102276000396000f300608060405260043610610078576000357c0100000000000000000000000000000000000000000000000000000000900463ffffffff16806341c0e1b51461007d5780636d9fb287146100945780638da5cb5b146100ab57806398d5fdca14610102578063cfae32171461012d578063da93d0d1146101b0575b600080fd5b34801561008957600080fd5b506100926101ba565b005b3480156100a057600080fd5b506100a961024b565b005b3480156100b757600080fd5b506100c061028e565b604051808273ffffffffffffffffffffffffffffffffffffffff1673ffffffffffffffffffffffffffffffffffffffff16815260200191505060405180910390f35b34801561010e57600080fd5b506101176102b3565b6040518082815260200191505060405180910390f35b6101356102bd565b6040518080602001828103825283818151815260200191508051906020019080838360005b8381101561017557808201518184015260208101905061015a565b50505050905090810190601f1680156101a25780820380516001836020036101000a031916815260200191505b509250505060405180910390f35b6101b8610571565b005b6000809054906101000a900473ffffffffffffffffffffffffffffffffffffffff1673ffffffffffffffffffffffffffffffffffffffff163373ffffffffffffffffffffffffffffffffffffffff161415610249576000809054906101000a900473ffffffffffffffffffffffffffffffffffffffff1673ffffffffffffffffffffffffffffffffffffffff16ff5b565b33600260006101000a81548173ffffffffffffffffffffffffffffffffffffffff021916908373ffffffffffffffffffffffffffffffffffffffff160217905550565b6000809054906101000a900473ffffffffffffffffffffffffffffffffffffffff1681565b6000600554905090565b6060600260009054906101000a900473ffffffffffffffffffffffffffffffffffffffff1673ffffffffffffffffffffffffffffffffffffffff163373ffffffffffffffffffffffffffffffffffffffff16141515610384576040517f08c379a00000000000000000000000000000000000000000000000000000000081526004018080602001828103825260158152602001807f596f7520617265206e6f7420746865206275796572000000000000000000000081525060200191505060405180910390fd5b60055460020234141515610426576040517f08c379a000000000000000000000000000000000000000000000000000000000815260040180806020018281038252602f8152602001807f596f7520646964206e6f742070726f7669646520616e2061646571756174652081526020017f616d6f756e74206f66206d6f6e6579000000000000000000000000000000000081525060400191505060405180910390fd5b600160009054906101000a900473ffffffffffffffffffffffffffffffffffffffff1673ffffffffffffffffffffffffffffffffffffffff166108fc349081150290604051600060405180830381858888f1935050505015801561048e573d6000803e3d6000fd5b506000600260006101000a81548173ffffffffffffffffffffffffffffffffffffffff021916908373ffffffffffffffffffffffffffffffffffffffff16021790555060038054600181600116156101000203166002900480601f0160208091040260200160405190810160405280929190818152602001828054600181600116156101000203166002900480156105675780601f1061053c57610100808354040283529160200191610567565b820191906000526020600020905b81548152906001019060200180831161054a57829003601f168201915b5050505050905090565b600160009054906101000a900473ffffffffffffffffffffffffffffffffffffffff1673ffffffffffffffffffffffffffffffffffffffff163373ffffffffffffffffffffffffffffffffffffffff1614151561065c576040517f08c379a00000000000000000000000000000000000000000000000000000000081526004018080602001828103825260318152602001807f4f6e6c7920746865206f776e6572206f66207468697320636f6e74726163742081526020017f63616e207365742074686520707269636500000000000000000000000000000081525060400191505060405180910390fd5b346005819055505600a165627a7a72305820244379212f7da00e5fe1b1fbbbed1352a975461f8de1966cf3215337c41f3e3d0029",
  "source": "pragma solidity ^0.4.24;\r\n\r\ncontract Mortal {\r\n    /* Define variable owner of the type address */\r\n    address public owner;\r\n\r\n\r\n    /* This function is executed at initialization and sets the owner of the contract */\r\n    constructor() public{ owner = msg.sender; }\r\n\r\n    /* Function to recover the funds on the contract */\r\n    function kill() public { if (msg.sender == owner) selfdestruct(owner); }\r\n}\r\n\r\ncontract Greeter is Mortal {\r\n    /* Define variable greeting of the type string */\r\n    address private greeter;\r\n    address private client;\r\n    bytes private greeting;\r\n    uint private payout;\r\n    uint private price;\r\n    string private name;\r\n    /* This runs when the contract is executed */\r\n    constructor(string n, bytes b) public {\r\n        greeter = msg.sender;\r\n        name = n;\r\n        greeting = b;\r\n    }\r\n\r\n    function registerClient() public {\r\n        client = msg.sender;\r\n    }\r\n\r\n    function getPrice() public returns (uint) {\r\n        return price;\r\n    }\r\n\r\n\r\n    /* Main function */\r\n    function greet() public payable returns (bytes) {\r\n        require(msg.sender == client, \"You are not the buyer\");\r\n        require(msg.value == 2 * price, \"You did not provide an adequate amount of money\");\r\n        greeter.transfer(msg.value);\r\n        client = address(0);\r\n        return greeting;\r\n    }\r\n\r\n    function setPrice() public payable{\r\n        require(msg.sender == greeter, \"Only the owner of this contract can set the price\");\r\n        price = msg.value;\r\n    }\r\n}\r\n",
  "sourcePath": "C:\\Users\\Bjorn\\Documents\\github\\student_18_ethcalypso\\contracts\\Greeter.sol",
  "compiler": {
    "name": "solc",
    "version": "0.4.24+commit.e67f0147.Emscripten.clang"
  },
  "schemaVersion": "2.0.1",
  "updatedAt": "2018-10-06T21:40:40.427Z"
}