{
  "contractName": "WriteRequestHolder",
  "abi": [
    {
      "constant": true,
      "inputs": [
        {
          "name": "",
          "type": "bytes32"
        }
      ],
      "name": "hasRequest",
      "outputs": [
        {
          "name": "",
          "type": "bool"
        }
      ],
      "payable": false,
      "stateMutability": "view",
      "type": "function"
    },
    {
      "constant": true,
      "inputs": [
        {
          "name": "",
          "type": "bytes32"
        }
      ],
      "name": "wrmap",
      "outputs": [
        {
          "name": "",
          "type": "address"
        }
      ],
      "payable": false,
      "stateMutability": "view",
      "type": "function"
    },
    {
      "constant": false,
      "inputs": [
        {
          "name": "wr",
          "type": "address"
        }
      ],
      "name": "addWriteRequest",
      "outputs": [],
      "payable": false,
      "stateMutability": "nonpayable",
      "type": "function"
    },
    {
      "constant": true,
      "inputs": [
        {
          "name": "b",
          "type": "bytes32"
        }
      ],
      "name": "getRequestByID",
      "outputs": [
        {
          "name": "",
          "type": "address"
        }
      ],
      "payable": false,
      "stateMutability": "view",
      "type": "function"
    },
    {
      "constant": true,
      "inputs": [],
      "name": "has",
      "outputs": [
        {
          "name": "",
          "type": "bool"
        }
      ],
      "payable": false,
      "stateMutability": "view",
      "type": "function"
    }
  ],
  "bytecode": "0x608060405234801561001057600080fd5b50610477806100206000396000f30060806040526004361061006d576000357c0100000000000000000000000000000000000000000000000000000000900463ffffffff168063034fb16d146100725780631029a017146100e357806376959033146101265780638bdb55d41461016f578063b689d5ac146101e0575b600080fd5b34801561007e57600080fd5b506100a1600480360381019080803560001916906020019092919050505061020f565b604051808273ffffffffffffffffffffffffffffffffffffffff1673ffffffffffffffffffffffffffffffffffffffff16815260200191505060405180910390f35b3480156100ef57600080fd5b50610124600480360381019080803573ffffffffffffffffffffffffffffffffffffffff169060200190929190505050610254565b005b34801561013257600080fd5b5061015560048036038101908080356000191690602001909291905050506103ef565b604051808215151515815260200191505060405180910390f35b34801561017b57600080fd5b5061019e600480360381019080803560001916906020019092919050505061040f565b604051808273ffffffffffffffffffffffffffffffffffffffff1673ffffffffffffffffffffffffffffffffffffffff16815260200191505060405180910390f35b3480156101ec57600080fd5b506101f5610442565b604051808215151515815260200191505060405180910390f35b600060016000836000191660001916815260200190815260200160002060009054906101000a900473ffffffffffffffffffffffffffffffffffffffff169050919050565b60008173ffffffffffffffffffffffffffffffffffffffff1663ab9dbd076040518163ffffffff167c0100000000000000000000000000000000000000000000000000000000028152600401602060405180830381600087803b1580156102ba57600080fd5b505af11580156102ce573d6000803e3d6000fd5b505050506040513d60208110156102e457600080fd5b810190808051906020019092919050505090508160016000836000191660001916815260200190815260200160002060006101000a81548173ffffffffffffffffffffffffffffffffffffffff021916908373ffffffffffffffffffffffffffffffffffffffff160217905550600160026000836000191660001916815260200190815260200160002060006101000a81548160ff02191690831515021790555060008290806001815401808255809150509060018203906000526020600020016000909192909190916101000a81548173ffffffffffffffffffffffffffffffffffffffff021916908373ffffffffffffffffffffffffffffffffffffffff160217905550505050565b60026020528060005260406000206000915054906101000a900460ff1681565b60016020528060005260406000206000915054906101000a900473ffffffffffffffffffffffffffffffffffffffff1681565b600060019050905600a165627a7a72305820b0e76c721a4f18894a1bcd2b06abc1d26c2d70e07acb343d137504b840d65f5f0029",
  "source": "pragma solidity ^0.4.24;\n\n\nimport \"./WriteRequest.sol\";\n\ncontract WriteRequestHolder {\n\n    WriteRequest[] private holder;\n    mapping(bytes32 => WriteRequest) public wrmap;\n    mapping(bytes32 => bool) public hasRequest;\n\n    function addWriteRequest(WriteRequest wr) public {\n        bytes32 h = wr.getID();\n        wrmap[h] = wr;\n        hasRequest[h] = true;\n        holder.push(wr);\n    }\n\n    function getRequestByID(bytes32 b) public view returns (WriteRequest) {\n        return wrmap[b];\n    }\n    function has() public view returns (bool) {\n        return true;\n    }\n}",
  "sourcePath": "/home/bjorn/go/src/github.com/dedis/student_18_ethcalypso/calypso/ethac/contracts/WriteRequestHolder.sol",
  "compiler": {
    "name": "solc",
    "version": "0.4.24+commit.e67f0147.Emscripten.clang"
  },
  "schemaVersion": "2.0.1",
  "updatedAt": "2018-10-14T15:08:24.738Z"
}