{
  "contractName": "WriteRequest",
  "abi": [
    {
      "inputs": [
        {
          "name": "d",
          "type": "bytes"
        },
        {
          "name": "ed",
          "type": "bytes"
        },
        {
          "name": "l",
          "type": "bytes"
        },
        {
          "name": "p",
          "type": "address[]"
        }
      ],
      "payable": false,
      "stateMutability": "nonpayable",
      "type": "constructor"
    },
    {
      "constant": false,
      "inputs": [],
      "name": "getID",
      "outputs": [
        {
          "name": "",
          "type": "bytes32"
        }
      ],
      "payable": false,
      "stateMutability": "nonpayable",
      "type": "function"
    },
    {
      "constant": false,
      "inputs": [
        {
          "name": "d",
          "type": "bytes"
        },
        {
          "name": "ed",
          "type": "bytes"
        },
        {
          "name": "l",
          "type": "bytes"
        },
        {
          "name": "p",
          "type": "address[]"
        }
      ],
      "name": "compare",
      "outputs": [
        {
          "name": "",
          "type": "bool"
        }
      ],
      "payable": false,
      "stateMutability": "nonpayable",
      "type": "function"
    },
    {
      "constant": false,
      "inputs": [],
      "name": "getPolicySize",
      "outputs": [
        {
          "name": "",
          "type": "uint256"
        }
      ],
      "payable": false,
      "stateMutability": "nonpayable",
      "type": "function"
    }
  ],
  "bytecode": "0x608060405234801561001057600080fd5b50604051610a47380380610a478339810180604052810190808051820192919060200180518201929190602001805182019291906020018051820192919050505083600090805190602001906100679291906100b6565b50826001908051906020019061007e9291906100b6565b5081600290805190602001906100959291906100b6565b5080600390805190602001906100ac929190610136565b5050505050610228565b828054600181600116156101000203166002900490600052602060002090601f016020900481019282601f106100f757805160ff1916838001178555610125565b82800160010185558215610125579182015b82811115610124578251825591602001919060010190610109565b5b50905061013291906101c0565b5090565b8280548282559060005260206000209081019282156101af579160200282015b828111156101ae5782518260006101000a81548173ffffffffffffffffffffffffffffffffffffffff021916908373ffffffffffffffffffffffffffffffffffffffff16021790555091602001919060010190610156565b5b5090506101bc91906101e5565b5090565b6101e291905b808211156101de5760008160009055506001016101c6565b5090565b90565b61022591905b8082111561022157600081816101000a81549073ffffffffffffffffffffffffffffffffffffffff0219169055506001016101eb565b5090565b90565b610810806102376000396000f300608060405260043610610057576000357c0100000000000000000000000000000000000000000000000000000000900463ffffffff168063ab9dbd071461005c578063b661a4471461008f578063ecc0f871146101df575b600080fd5b34801561006857600080fd5b5061007161020a565b60405180826000191660001916815260200191505060405180910390f35b34801561009b57600080fd5b506101c5600480360381019080803590602001908201803590602001908080601f0160208091040260200160405190810160405280939291908181526020018383808284378201915050505050509192919290803590602001908201803590602001908080601f0160208091040260200160405190810160405280939291908181526020018383808284378201915050505050509192919290803590602001908201803590602001908080601f016020809104026020016040519081016040528093929190818152602001838380828437820191505050505050919291929080359060200190820180359060200190808060200260200160405190810160405280939291908181526020018383602002808284378201915050505050509192919290505050610518565b604051808215151515815260200191505060405180910390f35b3480156101eb57600080fd5b506101f461067f565b6040518082815260200191505060405180910390f35b6000606061046e60008054600181600116156101000203166002900480601f0160208091040260200160405190810160405280929190818152602001828054600181600116156101000203166002900480156102a75780601f1061027c576101008083540402835291602001916102a7565b820191906000526020600020905b81548152906001019060200180831161028a57829003601f168201915b505050505060018054600181600116156101000203166002900480601f0160208091040260200160405190810160405280929190818152602001828054600181600116156101000203166002900480156103425780601f1061031757610100808354040283529160200191610342565b820191906000526020600020905b81548152906001019060200180831161032557829003601f168201915b505050505060028054600181600116156101000203166002900480601f0160208091040260200160405190810160405280929190818152602001828054600181600116156101000203166002900480156103dd5780601f106103b2576101008083540402835291602001916103dd565b820191906000526020600020905b8154815290600101906020018083116103c057829003601f168201915b5050505050600380548060200260200160405190810160405280929190818152602001828054801561046457602002820191906000526020600020905b8160009054906101000a900473ffffffffffffffffffffffffffffffffffffffff1673ffffffffffffffffffffffffffffffffffffffff168152602001906001019080831161041a575b505050505061068c565b90506002816040518082805190602001908083835b6020831015156104a85780518252602082019150602081019050602083039250610483565b6001836020036101000a0380198251168184511680821785525050505050509050019150506020604051808303816000865af11580156104ec573d6000803e3d6000fd5b5050506040513d602081101561050157600080fd5b810190808051906020019092919050505091505090565b600060606105288686868661068c565b90506002816040518082805190602001908083835b602083101515610562578051825260208201915060208101905060208303925061053d565b6001836020036101000a0380198251168184511680821785525050505050509050019150506020604051808303816000865af11580156105a6573d6000803e3d6000fd5b5050506040513d60208110156105bb57600080fd5b8101908080519060200190929190505050600019163073ffffffffffffffffffffffffffffffffffffffff1663ab9dbd076040518163ffffffff167c0100000000000000000000000000000000000000000000000000000000028152600401602060405180830381600087803b15801561063457600080fd5b505af1158015610648573d6000803e3d6000fd5b505050506040513d602081101561065e57600080fd5b81019080805190602001909291905050506000191614915050949350505050565b6000600380549050905090565b6060848484846040516020018085805190602001908083835b6020831015156106ca57805182526020820191506020810190506020830392506106a5565b6001836020036101000a03801982511681845116808217855250505050505090500184805190602001908083835b60208310151561071d57805182526020820191506020810190506020830392506106f8565b6001836020036101000a03801982511681845116808217855250505050505090500183805190602001908083835b602083101515610770578051825260208201915060208101905060208303925061074b565b6001836020036101000a038019825116818451168082178552505050505050905001828051906020019060200280838360005b838110156107be5780820151818401526020810190506107a3565b5050505090500194505050505060405160208183030381529060405290509493505050505600a165627a7a72305820d408220a580eeb26323c5f6a7d67d5e27eef25120b001a9c020e521033b092e10029",
  "source": "pragma solidity ^0.4.24;\r\n\r\ncontract WriteRequest {\r\n    bytes private data;\r\n\r\n    bytes private extraData;\r\n\r\n    bytes private LTSID;\r\n\r\n    address[] private policy;\r\n\r\n    constructor(bytes d, bytes ed, bytes l, address[] p) public {\r\n        data = d;\r\n        extraData = ed;\r\n        LTSID = l;\r\n        policy = p;\r\n    }\r\n\r\n    function getID() public returns (bytes32) {\r\n        bytes memory ba = encPack(data, extraData, LTSID, policy);\r\n        return sha256(ba);\r\n    }\r\n\r\n    function encPack(bytes d, bytes ed, bytes l, address[] p) private returns (bytes) {\r\n        return abi.encodePacked(d, ed, l, p);\r\n    }\r\n\r\n    //Basically passing a contract was too hard so I just all the data of a contract.\r\n    function compare(bytes d, bytes ed, bytes l, address[] p) public returns (bool) {\r\n        bytes memory ba = encPack(d, ed, l, p);\r\n        return this.getID() == sha256(ba);\r\n    }\r\n\r\n    function getPolicySize() public returns (uint256) {\r\n        return policy.length;\r\n    }\r\n}",
  "sourcePath": "C:\\Users\\Bjorn\\Documents\\github\\student_18_ethcalypso\\contracts\\WriteRequest.sol",
  "compiler": {
    "name": "solc",
    "version": "0.4.24+commit.e67f0147.Emscripten.clang"
  },
  "schemaVersion": "2.0.1",
  "updatedAt": "2018-10-07T14:19:47.582Z"
}