{
  "contractName": "WriteRequestHolder",
  "abi": [
    {
      "constant": true,
      "inputs": [
        {
          "name": "",
          "type": "address"
        }
      ],
      "name": "hasRequest",
      "outputs": [
        {
          "name": "",
          "type": "bool"
        }
      ],
      "payable": false,
      "stateMutability": "view",
      "type": "function"
    },
    {
      "constant": true,
      "inputs": [
        {
          "name": "",
          "type": "address"
        }
      ],
      "name": "wrmap",
      "outputs": [
        {
          "name": "",
          "type": "address"
        }
      ],
      "payable": false,
      "stateMutability": "view",
      "type": "function"
    },
    {
      "inputs": [],
      "payable": false,
      "stateMutability": "nonpayable",
      "type": "constructor"
    },
    {
      "constant": false,
      "inputs": [
        {
          "name": "a",
          "type": "address"
        }
      ],
      "name": "addWriteRequest",
      "outputs": [],
      "payable": false,
      "stateMutability": "nonpayable",
      "type": "function"
    },
    {
      "constant": true,
      "inputs": [
        {
          "name": "a",
          "type": "address"
        }
      ],
      "name": "getRequestByID",
      "outputs": [
        {
          "name": "",
          "type": "address"
        }
      ],
      "payable": false,
      "stateMutability": "view",
      "type": "function"
    },
    {
      "constant": false,
      "inputs": [
        {
          "name": "a",
          "type": "address"
        }
      ],
      "name": "canRead",
      "outputs": [
        {
          "name": "",
          "type": "bool"
        }
      ],
      "payable": false,
      "stateMutability": "nonpayable",
      "type": "function"
    }
  ],
  "bytecode": "0x608060405234801561001057600080fd5b5061048b806100206000396000f30060806040526004361061006d576000357c0100000000000000000000000000000000000000000000000000000000900463ffffffff1680631029a0171461007257806342087d4f146100b5578063b731259114610110578063e216ea2b14610193578063ed85db23146101ee575b600080fd5b34801561007e57600080fd5b506100b3600480360381019080803573ffffffffffffffffffffffffffffffffffffffff169060200190929190505050610271565b005b3480156100c157600080fd5b506100f6600480360381019080803573ffffffffffffffffffffffffffffffffffffffff16906020019092919050505061034e565b604051808215151515815260200191505060405180910390f35b34801561011c57600080fd5b50610151600480360381019080803573ffffffffffffffffffffffffffffffffffffffff1690602001909291905050506103a4565b604051808273ffffffffffffffffffffffffffffffffffffffff1673ffffffffffffffffffffffffffffffffffffffff16815260200191505060405180910390f35b34801561019f57600080fd5b506101d4600480360381019080803573ffffffffffffffffffffffffffffffffffffffff16906020019092919050505061040c565b604051808215151515815260200191505060405180910390f35b3480156101fa57600080fd5b5061022f600480360381019080803573ffffffffffffffffffffffffffffffffffffffff16906020019092919050505061042c565b604051808273ffffffffffffffffffffffffffffffffffffffff1673ffffffffffffffffffffffffffffffffffffffff16815260200191505060405180910390f35b6000819050806000808473ffffffffffffffffffffffffffffffffffffffff1673ffffffffffffffffffffffffffffffffffffffff16815260200190815260200160002060006101000a81548173ffffffffffffffffffffffffffffffffffffffff021916908373ffffffffffffffffffffffffffffffffffffffff16021790555060018060008473ffffffffffffffffffffffffffffffffffffffff1673ffffffffffffffffffffffffffffffffffffffff16815260200190815260200160002060006101000a81548160ff0219169083151502179055505050565b6000600160008373ffffffffffffffffffffffffffffffffffffffff1673ffffffffffffffffffffffffffffffffffffffff16815260200190815260200160002060009054906101000a900460ff169050919050565b60008060008373ffffffffffffffffffffffffffffffffffffffff1673ffffffffffffffffffffffffffffffffffffffff16815260200190815260200160002060009054906101000a900473ffffffffffffffffffffffffffffffffffffffff169050919050565b60016020528060005260406000206000915054906101000a900460ff1681565b60006020528060005260406000206000915054906101000a900473ffffffffffffffffffffffffffffffffffffffff16815600a165627a7a72305820d10665c7aec4913963dec91bbe095f3726fe62141b2c35a6bb9dd6b25c7f7d930029",
  "source": "pragma solidity ^0.4.24;\n\n\nimport \"./WriteRequest.sol\";\n\ncontract WriteRequestHolder {\n\n    mapping(address => WriteRequest) public wrmap;\n    mapping(address => bool) public hasRequest;\n    \n    constructor() public {\n\n    }\n\n    function addWriteRequest(address a) public {\n        WriteRequest wr = WriteRequest(a);\n        wrmap[a] = wr;\n        hasRequest[a] = true;\n    }\n\n    function getRequestByID(address a) public view returns (WriteRequest) {\n        return wrmap[a];\n    }\n\n    function canRead(address a) public returns (bool) {\n        return hasRequest[a];\n    }\n}",
  "sourcePath": "/home/bjorn/go/src/github.com/dedis/student_18_ethcalypso/calypso/ethac/contracts/WriteRequestHolder.sol",
  "compiler": {
    "name": "solc",
    "version": "0.4.24+commit.e67f0147.Emscripten.clang"
  },
  "schemaVersion": "2.0.1",
  "updatedAt": "2018-10-15T00:21:15.168Z"
}